:020000040000FA
:02000000FD2BD6
:10072400F030DF005F0883169F05073083129900BD
:10073400A3018316051485108312851083160511F1
:10074400831205118316051283120512831685126E
:1007540083128512051CAF2BB02BE92B0518B32B84
:10076400B42BB02B0330A2008A30A1005530A00076
:10077400A00BBA2BA10BBA2BA20BBA2BC12BD02BDB
:100784008514051505168516051CC92BCA2BD02BF7
:100794000518CD2BCE2BCA2BA301A30A8312230841
:1007A4000319D52BD62BC22B0330A2008A30A1000B
:1007B4005530A000A00BDC2BA10BDC2BA20BDC2BF7
:1007C400E32B83128510051105128512FC2B0330CF
:1007D400A2008A30A1005530A000A00BEF2BA10B82
:1007E400EF2BA20BEF2BF62B8312851005110512AC
:0A07F4008512AC2B00288301922B24
:02400E00A431DB
:00000001FF
